{
  "contractName": "TokenFarm",
  "abi": [
    {
      "inputs": [
        {
          "internalType": "contract CheemsToken",
          "name": "_cheemsToken",
          "type": "address"
        },
        {
          "internalType": "contract DaiToken",
          "name": "_daiToken",
          "type": "address"
        }
      ],
      "stateMutability": "nonpayable",
      "type": "constructor"
    },
    {
      "inputs": [],
      "name": "cheemsToken",
      "outputs": [
        {
          "internalType": "contract CheemsToken",
          "name": "",
          "type": "address"
        }
      ],
      "stateMutability": "view",
      "type": "function"
    },
    {
      "inputs": [],
      "name": "daiToken",
      "outputs": [
        {
          "internalType": "contract DaiToken",
          "name": "",
          "type": "address"
        }
      ],
      "stateMutability": "view",
      "type": "function"
    },
    {
      "inputs": [
        {
          "internalType": "address",
          "name": "",
          "type": "address"
        }
      ],
      "name": "hasStaked",
      "outputs": [
        {
          "internalType": "bool",
          "name": "",
          "type": "bool"
        }
      ],
      "stateMutability": "view",
      "type": "function"
    },
    {
      "inputs": [
        {
          "internalType": "address",
          "name": "",
          "type": "address"
        }
      ],
      "name": "isStaking",
      "outputs": [
        {
          "internalType": "bool",
          "name": "",
          "type": "bool"
        }
      ],
      "stateMutability": "view",
      "type": "function"
    },
    {
      "inputs": [],
      "name": "name",
      "outputs": [
        {
          "internalType": "string",
          "name": "",
          "type": "string"
        }
      ],
      "stateMutability": "view",
      "type": "function"
    },
    {
      "inputs": [
        {
          "internalType": "uint256",
          "name": "",
          "type": "uint256"
        }
      ],
      "name": "stakers",
      "outputs": [
        {
          "internalType": "address",
          "name": "",
          "type": "address"
        }
      ],
      "stateMutability": "view",
      "type": "function"
    },
    {
      "inputs": [
        {
          "internalType": "address",
          "name": "",
          "type": "address"
        }
      ],
      "name": "stakingBalance",
      "outputs": [
        {
          "internalType": "uint256",
          "name": "",
          "type": "uint256"
        }
      ],
      "stateMutability": "view",
      "type": "function"
    },
    {
      "inputs": [
        {
          "internalType": "uint256",
          "name": "amount",
          "type": "uint256"
        }
      ],
      "name": "stakeToken",
      "outputs": [],
      "stateMutability": "nonpayable",
      "type": "function"
    },
    {
      "inputs": [],
      "name": "unstakeToken",
      "outputs": [],
      "stateMutability": "nonpayable",
      "type": "function"
    },
    {
      "inputs": [],
      "name": "issueToken",
      "outputs": [],
      "stateMutability": "nonpayable",
      "type": "function"
    }
  ],
  "bytecode": "0x60806040526040518060400160405280601181526020017f436865656d7320546f6b656e204661726d000000000000000000000000000000815250600090805190602001906200005192919062000150565b503480156200005f57600080fd5b50604051620013d8380380620013d883398181016040528101906200008591906200022e565b81600260006101000a81548173ffffffffffffffffffffffffffffffffffffffff021916908373ffffffffffffffffffffffffffffffffffffffff16021790555080600360006101000a81548173ffffffffffffffffffffffffffffffffffffffff021916908373ffffffffffffffffffffffffffffffffffffffff16021790555033600160006101000a81548173ffffffffffffffffffffffffffffffffffffffff021916908373ffffffffffffffffffffffffffffffffffffffff160217905550505062000364565b8280546200015e90620002cb565b90600052602060002090601f016020900481019282620001825760008555620001ce565b82601f106200019d57805160ff1916838001178555620001ce565b82800160010185558215620001ce579182015b82811115620001cd578251825591602001919060010190620001b0565b5b509050620001dd9190620001e1565b5090565b5b80821115620001fc576000816000905550600101620001e2565b5090565b600081519050620002118162000330565b92915050565b60008151905062000228816200034a565b92915050565b600080604083850312156200024257600080fd5b6000620002528582860162000200565b9250506020620002658582860162000217565b9150509250929050565b60006200027c82620002ab565b9050919050565b600062000290826200026f565b9050919050565b6000620002a4826200026f565b9050919050565b600073ffffffffffffffffffffffffffffffffffffffff82169050919050565b60006002820490506001821680620002e457607f821691505b60208210811415620002fb57620002fa62000301565b5b50919050565b7f4e487b7100000000000000000000000000000000000000000000000000000000600052602260045260246000fd5b6200033b8162000283565b81146200034757600080fd5b50565b620003558162000297565b81146200036157600080fd5b50565b61106480620003746000396000f3fe608060405234801561001057600080fd5b506004361061009e5760003560e01c8063a1ee8c7811610066578063a1ee8c7814610149578063be22f54614610153578063c93c8f3414610171578063cda6b847146101a1578063fd5e6dd1146101bd5761009e565b806303678984146100a357806306fdde03146100c157806320eb640c146100df57806345bc78ab146100e95780636f49712b14610119575b600080fd5b6100ab6101ed565b6040516100b89190610c7c565b60405180910390f35b6100c9610213565b6040516100d69190610cb2565b60405180910390f35b6100e76102a1565b005b61010360048036038101906100fe9190610a7e565b610478565b6040516101109190610d34565b60405180910390f35b610133600480360381019061012e9190610a7e565b610490565b6040516101409190610c61565b60405180910390f35b6101516104b0565b005b61015b6106cf565b6040516101689190610c97565b60405180910390f35b61018b60048036038101906101869190610a7e565b6106f5565b6040516101989190610c61565b60405180910390f35b6101bb60048036038101906101b69190610ad0565b610715565b005b6101d760048036038101906101d29190610ad0565b610a00565b6040516101e49190610be6565b60405180910390f35b600260009054906101000a900473ffffffffffffffffffffffffffffffffffffffff1681565b6000805461022090610e84565b80601f016020809104026020016040519081016040528092919081815260200182805461024c90610e84565b80156102995780601f1061026e57610100808354040283529160200191610299565b820191906000526020600020905b81548152906001019060200180831161027c57829003601f168201915b505050505081565b6000600560003373ffffffffffffffffffffffffffffffffffffffff1673ffffffffffffffffffffffffffffffffffffffff16815260200190815260200160002054905060008111610328576040517f08c379a000000000000000000000000000000000000000000000000000000000815260040161031f90610cf4565b60405180910390fd5b600360009054906101000a900473ffffffffffffffffffffffffffffffffffffffff1673ffffffffffffffffffffffffffffffffffffffff1663a9059cbb33836040518363ffffffff1660e01b8152600401610385929190610c38565b602060405180830381600087803b15801561039f57600080fd5b505af11580156103b3573d6000803e3d6000fd5b505050506040513d601f19601f820116820180604052508101906103d79190610aa7565b506000600560003373ffffffffffffffffffffffffffffffffffffffff1673ffffffffffffffffffffffffffffffffffffffff168152602001908152602001600020819055506000600760003373ffffffffffffffffffffffffffffffffffffffff1673ffffffffffffffffffffffffffffffffffffffff16815260200190815260200160002060006101000a81548160ff02191690831515021790555050565b60056020528060005260406000206000915090505481565b60076020528060005260406000206000915054906101000a900460ff1681565b600160009054906101000a900473ffffffffffffffffffffffffffffffffffffffff1673ffffffffffffffffffffffffffffffffffffffff163373ffffffffffffffffffffffffffffffffffffffff1614610540576040517f08c379a000000000000000000000000000000000000000000000000000000000815260040161053790610cd4565b60405180910390fd5b60005b6004805490508110156106cc5760006004828154811061058c577f4e487b7100000000000000000000000000000000000000000000000000000000600052603260045260246000fd5b9060005260206000200160009054906101000a900473ffffffffffffffffffffffffffffffffffffffff1690506000600560008373ffffffffffffffffffffffffffffffffffffffff1673ffffffffffffffffffffffffffffffffffffffff16815260200190815260200160002054905060008111156106b757600260009054906101000a900473ffffffffffffffffffffffffffffffffffffffff1673ffffffffffffffffffffffffffffffffffffffff1663a9059cbb83836040518363ffffffff1660e01b8152600401610663929190610c38565b602060405180830381600087803b15801561067d57600080fd5b505af1158015610691573d6000803e3d6000fd5b505050506040513d601f19601f820116820180604052508101906106b59190610aa7565b505b505080806106c490610eb6565b915050610543565b50565b600360009054906101000a900473ffffffffffffffffffffffffffffffffffffffff1681565b60066020528060005260406000206000915054906101000a900460ff1681565b60008111610758576040517f08c379a000000000000000000000000000000000000000000000000000000000815260040161074f90610d14565b60405180910390fd5b600360009054906101000a900473ffffffffffffffffffffffffffffffffffffffff1673ffffffffffffffffffffffffffffffffffffffff166323b872dd3330846040518463ffffffff1660e01b81526004016107b793929190610c01565b602060405180830381600087803b1580156107d157600080fd5b505af11580156107e5573d6000803e3d6000fd5b505050506040513d601f19601f820116820180604052508101906108099190610aa7565b5080600560003373ffffffffffffffffffffffffffffffffffffffff1673ffffffffffffffffffffffffffffffffffffffff168152602001908152602001600020546108559190610d6b565b600560003373ffffffffffffffffffffffffffffffffffffffff1673ffffffffffffffffffffffffffffffffffffffff16815260200190815260200160002081905550600660003373ffffffffffffffffffffffffffffffffffffffff1673ffffffffffffffffffffffffffffffffffffffff16815260200190815260200160002060009054906101000a900460ff1661094d576004339080600181540180825580915050600190039060005260206000200160009091909190916101000a81548173ffffffffffffffffffffffffffffffffffffffff021916908373ffffffffffffffffffffffffffffffffffffffff1602179055505b6001600760003373ffffffffffffffffffffffffffffffffffffffff1673ffffffffffffffffffffffffffffffffffffffff16815260200190815260200160002060006101000a81548160ff0219169083151502179055506001600660003373ffffffffffffffffffffffffffffffffffffffff1673ffffffffffffffffffffffffffffffffffffffff16815260200190815260200160002060006101000a81548160ff02191690831515021790555050565b60048181548110610a1057600080fd5b906000526020600020016000915054906101000a900473ffffffffffffffffffffffffffffffffffffffff1681565b600081359050610a4e81610fe9565b92915050565b600081519050610a6381611000565b92915050565b600081359050610a7881611017565b92915050565b600060208284031215610a9057600080fd5b6000610a9e84828501610a3f565b91505092915050565b600060208284031215610ab957600080fd5b6000610ac784828501610a54565b91505092915050565b600060208284031215610ae257600080fd5b6000610af084828501610a69565b91505092915050565b610b0281610dc1565b82525050565b610b1181610dd3565b82525050565b610b2081610e09565b82525050565b610b2f81610e2d565b82525050565b6000610b4082610d4f565b610b4a8185610d5a565b9350610b5a818560208601610e51565b610b6381610f5d565b840191505092915050565b6000610b7b601883610d5a565b9150610b8682610f6e565b602082019050919050565b6000610b9e601b83610d5a565b9150610ba982610f97565b602082019050919050565b6000610bc1601283610d5a565b9150610bcc82610fc0565b602082019050919050565b610be081610dff565b82525050565b6000602082019050610bfb6000830184610af9565b92915050565b6000606082019050610c166000830186610af9565b610c236020830185610af9565b610c306040830184610bd7565b949350505050565b6000604082019050610c4d6000830185610af9565b610c5a6020830184610bd7565b9392505050565b6000602082019050610c766000830184610b08565b92915050565b6000602082019050610c916000830184610b17565b92915050565b6000602082019050610cac6000830184610b26565b92915050565b60006020820190508181036000830152610ccc8184610b35565b905092915050565b60006020820190508181036000830152610ced81610b6e565b9050919050565b60006020820190508181036000830152610d0d81610b91565b9050919050565b60006020820190508181036000830152610d2d81610bb4565b9050919050565b6000602082019050610d496000830184610bd7565b92915050565b600081519050919050565b600082825260208201905092915050565b6000610d7682610dff565b9150610d8183610dff565b9250827fffffffffffffffffffffffffffffffffffffffffffffffffffffffffffffffff03821115610db657610db5610eff565b5b828201905092915050565b6000610dcc82610ddf565b9050919050565b60008115159050919050565b600073ffffffffffffffffffffffffffffffffffffffff82169050919050565b6000819050919050565b6000610e1482610e1b565b9050919050565b6000610e2682610ddf565b9050919050565b6000610e3882610e3f565b9050919050565b6000610e4a82610ddf565b9050919050565b60005b83811015610e6f578082015181840152602081019050610e54565b83811115610e7e576000848401525b50505050565b60006002820490506001821680610e9c57607f821691505b60208210811415610eb057610eaf610f2e565b5b50919050565b6000610ec182610dff565b91507fffffffffffffffffffffffffffffffffffffffffffffffffffffffffffffffff821415610ef457610ef3610eff565b5b600182019050919050565b7f4e487b7100000000000000000000000000000000000000000000000000000000600052601160045260246000fd5b7f4e487b7100000000000000000000000000000000000000000000000000000000600052602260045260246000fd5b6000601f19601f8301169050919050565b7f63616c6c6572206d75737420626520746865206f776e65720000000000000000600082015250565b7f7374616b696e672062616c616e63652063616e6e6f7420626520300000000000600082015250565b7f616d6f756e742063616e6e6f7420626520300000000000000000000000000000600082015250565b610ff281610dc1565b8114610ffd57600080fd5b50565b61100981610dd3565b811461101457600080fd5b50565b61102081610dff565b811461102b57600080fd5b5056fea2646970667358221220f256edab2e424150825ad80a0f0a42e625c817a35e51bbb7e386a943ca52045764736f6c63430008040033",
  "immutableReferences": {},
  "source": "pragma solidity ^0.8.4;\r\n\r\nimport \"./CheemsToken.sol\";\r\nimport \"./DaiToken.sol\";\r\n\r\ncontract TokenFarm {\r\n    string public name = \"Cheems Token Farm\";\r\n    address owner;\r\n    CheemsToken public cheemsToken;\r\n    DaiToken public daiToken;\r\n\r\n    address[] public stakers;\r\n\r\n    mapping(address => uint) public stakingBalance;\r\n    mapping(address => bool) public hasStaked;\r\n    mapping(address => bool) public isStaking;\r\n\r\n    constructor(CheemsToken _cheemsToken, DaiToken _daiToken) {\r\n        cheemsToken = _cheemsToken;\r\n        daiToken = _daiToken;\r\n        owner = msg.sender;\r\n    }\r\n\r\n    //1. stake\r\n    function stakeToken(uint amount) public {\r\n        //check if amount more than 0\r\n        require(amount > 0, \"amount cannot be 0\");\r\n\r\n        //transfer Mock Dai tokens to this contract for staking\r\n        daiToken.transferFrom(msg.sender, address(this), amount);\r\n\r\n        //update staking balance\r\n        stakingBalance[msg.sender] = stakingBalance[msg.sender] + amount;\r\n\r\n        //add user to list of stakers only if they haven't staked in this DeFi\r\n        if(!hasStaked[msg.sender]) {\r\n            stakers.push(msg.sender);\r\n        }\r\n\r\n        // Update staking status\r\n        isStaking[msg.sender] = true;\r\n        hasStaked[msg.sender] = true;\r\n    }\r\n\r\n    //2. unstake\r\n    function unstakeToken() public {\r\n        //fetch staking balance\r\n        uint balance = stakingBalance[msg.sender];\r\n        \r\n        //require amount greater than 0\r\n        require(balance > 0, \"staking balance cannot be 0\");\r\n\r\n        daiToken.transfer(msg.sender, balance);\r\n\r\n        stakingBalance[msg.sender] = 0;\r\n\r\n        isStaking[msg.sender] = false;\r\n    }\r\n\r\n    //3. issuing token\r\n    function issueToken() public {\r\n        require(msg.sender == owner, \"caller must be the owner\");\r\n        for(uint i = 0; i < stakers.length; i++) {\r\n            address recipient = stakers[i];\r\n            uint balance = stakingBalance[recipient];\r\n            if(balance > 0){\r\n                cheemsToken.transfer(recipient, balance);\r\n            }\r\n        }\r\n    }\r\n}",
  "sourcePath": "I:/Development/cheems-coin/src/contracts/TokenFarm.sol",
  "compiler": {
    "name": "solc",
    "version": "0.8.4+commit.c7e474f2.Emscripten.clang"
  },
  "schemaVersion": "3.4.1",
  "updatedAt": "2021-06-21T21:05:19.802Z",
  "devdoc": {
    "kind": "dev",
    "methods": {},
    "version": 1
  },
  "userdoc": {
    "kind": "user",
    "methods": {},
    "version": 1
  }
}